{
  "_format": "hh-sol-artifact-1",
  "contractName": "Marketplace",
  "sourceName": "contracts/Marketplace.sol",
  "abi": [
    {
      "inputs": [
        {
          "internalType": "address",
          "name": "_owner",
          "type": "address"
        },
        {
          "internalType": "address[]",
          "name": "_admins",
          "type": "address[]"
        }
      ],
      "stateMutability": "nonpayable",
      "type": "constructor"
    },
    {
      "anonymous": false,
      "inputs": [
        {
          "indexed": false,
          "internalType": "uint256",
          "name": "itemId",
          "type": "uint256"
        },
        {
          "indexed": true,
          "internalType": "address",
          "name": "nft",
          "type": "address"
        },
        {
          "indexed": false,
          "internalType": "uint256",
          "name": "tokenId",
          "type": "uint256"
        },
        {
          "indexed": false,
          "internalType": "uint256",
          "name": "price",
          "type": "uint256"
        },
        {
          "indexed": true,
          "internalType": "address",
          "name": "seller",
          "type": "address"
        },
        {
          "indexed": true,
          "internalType": "address",
          "name": "buyer",
          "type": "address"
        }
      ],
      "name": "Bought",
      "type": "event"
    },
    {
      "anonymous": false,
      "inputs": [
        {
          "indexed": false,
          "internalType": "uint256",
          "name": "itemId",
          "type": "uint256"
        },
        {
          "indexed": true,
          "internalType": "address",
          "name": "nft",
          "type": "address"
        },
        {
          "indexed": false,
          "internalType": "uint256",
          "name": "tokenId",
          "type": "uint256"
        },
        {
          "indexed": false,
          "internalType": "uint256",
          "name": "price",
          "type": "uint256"
        },
        {
          "indexed": false,
          "internalType": "uint256",
          "name": "bid",
          "type": "uint256"
        },
        {
          "indexed": true,
          "internalType": "address",
          "name": "seller",
          "type": "address"
        },
        {
          "indexed": true,
          "internalType": "address",
          "name": "bidder",
          "type": "address"
        }
      ],
      "name": "New_Bid",
      "type": "event"
    },
    {
      "anonymous": false,
      "inputs": [
        {
          "indexed": false,
          "internalType": "uint256",
          "name": "itemId",
          "type": "uint256"
        },
        {
          "indexed": true,
          "internalType": "address",
          "name": "nft",
          "type": "address"
        },
        {
          "indexed": false,
          "internalType": "uint256",
          "name": "tokenId",
          "type": "uint256"
        },
        {
          "indexed": false,
          "internalType": "uint256",
          "name": "price",
          "type": "uint256"
        },
        {
          "indexed": true,
          "internalType": "address",
          "name": "seller",
          "type": "address"
        }
      ],
      "name": "Offered",
      "type": "event"
    },
    {
      "inputs": [],
      "name": "bids",
      "outputs": [
        {
          "internalType": "uint256",
          "name": "",
          "type": "uint256"
        }
      ],
      "stateMutability": "view",
      "type": "function"
    },
    {
      "inputs": [],
      "name": "feeAccount",
      "outputs": [
        {
          "internalType": "address payable",
          "name": "",
          "type": "address"
        }
      ],
      "stateMutability": "view",
      "type": "function"
    },
    {
      "inputs": [],
      "name": "feePercent",
      "outputs": [
        {
          "internalType": "uint256",
          "name": "",
          "type": "uint256"
        }
      ],
      "stateMutability": "view",
      "type": "function"
    },
    {
      "inputs": [],
      "name": "gain",
      "outputs": [
        {
          "internalType": "uint256",
          "name": "",
          "type": "uint256"
        }
      ],
      "stateMutability": "view",
      "type": "function"
    },
    {
      "inputs": [],
      "name": "getBalance",
      "outputs": [
        {
          "internalType": "uint256",
          "name": "",
          "type": "uint256"
        }
      ],
      "stateMutability": "view",
      "type": "function"
    },
    {
      "inputs": [
        {
          "internalType": "uint256",
          "name": "_itemId",
          "type": "uint256"
        }
      ],
      "name": "getTotalPrice",
      "outputs": [
        {
          "internalType": "uint256",
          "name": "",
          "type": "uint256"
        }
      ],
      "stateMutability": "view",
      "type": "function"
    },
    {
      "inputs": [],
      "name": "getUnsoldItems",
      "outputs": [
        {
          "components": [
            {
              "internalType": "uint256",
              "name": "itemId",
              "type": "uint256"
            },
            {
              "internalType": "contract IERC721",
              "name": "nft",
              "type": "address"
            },
            {
              "internalType": "uint256",
              "name": "tokenId",
              "type": "uint256"
            },
            {
              "internalType": "uint256",
              "name": "price",
              "type": "uint256"
            },
            {
              "internalType": "uint256",
              "name": "totalPrice",
              "type": "uint256"
            },
            {
              "internalType": "address payable",
              "name": "seller",
              "type": "address"
            },
            {
              "internalType": "address payable",
              "name": "buyer",
              "type": "address"
            },
            {
              "internalType": "bool",
              "name": "sold",
              "type": "bool"
            },
            {
              "internalType": "bool",
              "name": "listed",
              "type": "bool"
            },
            {
              "internalType": "uint256",
              "name": "bid",
              "type": "uint256"
            },
            {
              "internalType": "address payable",
              "name": "bidder",
              "type": "address"
            }
          ],
          "internalType": "struct Marketplace.Item[]",
          "name": "",
          "type": "tuple[]"
        }
      ],
      "stateMutability": "view",
      "type": "function"
    },
    {
      "inputs": [
        {
          "internalType": "address",
          "name": "_sender",
          "type": "address"
        }
      ],
      "name": "getUserItems",
      "outputs": [
        {
          "components": [
            {
              "internalType": "uint256",
              "name": "itemId",
              "type": "uint256"
            },
            {
              "internalType": "contract IERC721",
              "name": "nft",
              "type": "address"
            },
            {
              "internalType": "uint256",
              "name": "tokenId",
              "type": "uint256"
            },
            {
              "internalType": "uint256",
              "name": "price",
              "type": "uint256"
            },
            {
              "internalType": "uint256",
              "name": "totalPrice",
              "type": "uint256"
            },
            {
              "internalType": "address payable",
              "name": "seller",
              "type": "address"
            },
            {
              "internalType": "address payable",
              "name": "buyer",
              "type": "address"
            },
            {
              "internalType": "bool",
              "name": "sold",
              "type": "bool"
            },
            {
              "internalType": "bool",
              "name": "listed",
              "type": "bool"
            },
            {
              "internalType": "uint256",
              "name": "bid",
              "type": "uint256"
            },
            {
              "internalType": "address payable",
              "name": "bidder",
              "type": "address"
            }
          ],
          "internalType": "struct Marketplace.Item[]",
          "name": "",
          "type": "tuple[]"
        }
      ],
      "stateMutability": "view",
      "type": "function"
    },
    {
      "inputs": [
        {
          "internalType": "uint256",
          "name": "_itemId",
          "type": "uint256"
        }
      ],
      "name": "honorBid",
      "outputs": [],
      "stateMutability": "nonpayable",
      "type": "function"
    },
    {
      "inputs": [],
      "name": "itemCount",
      "outputs": [
        {
          "internalType": "uint256",
          "name": "",
          "type": "uint256"
        }
      ],
      "stateMutability": "view",
      "type": "function"
    },
    {
      "inputs": [],
      "name": "itemSold",
      "outputs": [
        {
          "internalType": "uint256",
          "name": "",
          "type": "uint256"
        }
      ],
      "stateMutability": "view",
      "type": "function"
    },
    {
      "inputs": [
        {
          "internalType": "uint256",
          "name": "",
          "type": "uint256"
        }
      ],
      "name": "items",
      "outputs": [
        {
          "internalType": "uint256",
          "name": "itemId",
          "type": "uint256"
        },
        {
          "internalType": "contract IERC721",
          "name": "nft",
          "type": "address"
        },
        {
          "internalType": "uint256",
          "name": "tokenId",
          "type": "uint256"
        },
        {
          "internalType": "uint256",
          "name": "price",
          "type": "uint256"
        },
        {
          "internalType": "uint256",
          "name": "totalPrice",
          "type": "uint256"
        },
        {
          "internalType": "address payable",
          "name": "seller",
          "type": "address"
        },
        {
          "internalType": "address payable",
          "name": "buyer",
          "type": "address"
        },
        {
          "internalType": "bool",
          "name": "sold",
          "type": "bool"
        },
        {
          "internalType": "bool",
          "name": "listed",
          "type": "bool"
        },
        {
          "internalType": "uint256",
          "name": "bid",
          "type": "uint256"
        },
        {
          "internalType": "address payable",
          "name": "bidder",
          "type": "address"
        }
      ],
      "stateMutability": "view",
      "type": "function"
    },
    {
      "inputs": [
        {
          "internalType": "contract IERC721",
          "name": "_nft",
          "type": "address"
        },
        {
          "internalType": "uint256",
          "name": "_tokenId",
          "type": "uint256"
        },
        {
          "internalType": "uint256",
          "name": "_price",
          "type": "uint256"
        }
      ],
      "name": "listItem",
      "outputs": [],
      "stateMutability": "nonpayable",
      "type": "function"
    },
    {
      "inputs": [
        {
          "internalType": "uint256",
          "name": "_itemId",
          "type": "uint256"
        }
      ],
      "name": "placeBid",
      "outputs": [],
      "stateMutability": "payable",
      "type": "function"
    },
    {
      "inputs": [
        {
          "internalType": "uint256",
          "name": "_itemId",
          "type": "uint256"
        }
      ],
      "name": "purchaseItem",
      "outputs": [],
      "stateMutability": "payable",
      "type": "function"
    },
    {
      "inputs": [],
      "name": "toggleListing",
      "outputs": [],
      "stateMutability": "nonpayable",
      "type": "function"
    },
    {
      "inputs": [],
      "name": "toggleSales",
      "outputs": [],
      "stateMutability": "nonpayable",
      "type": "function"
    },
    {
      "inputs": [
        {
          "internalType": "bool",
          "name": "_toggle",
          "type": "bool"
        }
      ],
      "name": "toggleSalesAndListing",
      "outputs": [],
      "stateMutability": "nonpayable",
      "type": "function"
    },
    {
      "inputs": [],
      "name": "totalSales",
      "outputs": [
        {
          "internalType": "uint256",
          "name": "",
          "type": "uint256"
        }
      ],
      "stateMutability": "view",
      "type": "function"
    },
    {
      "inputs": [
        {
          "internalType": "uint256",
          "name": "_itemId",
          "type": "uint256"
        }
      ],
      "name": "unListItem",
      "outputs": [],
      "stateMutability": "nonpayable",
      "type": "function"
    },
    {
      "inputs": [
        {
          "internalType": "address[]",
          "name": "_admins",
          "type": "address[]"
        },
        {
          "internalType": "bool",
          "name": "_toggle",
          "type": "bool"
        }
      ],
      "name": "updateAdmins",
      "outputs": [],
      "stateMutability": "nonpayable",
      "type": "function"
    },
    {
      "inputs": [
        {
          "internalType": "address",
          "name": "_feeAccount",
          "type": "address"
        }
      ],
      "name": "updateFeeAccount",
      "outputs": [],
      "stateMutability": "nonpayable",
      "type": "function"
    },
    {
      "inputs": [
        {
          "internalType": "uint256",
          "name": "_feePercentage",
          "type": "uint256"
        }
      ],
      "name": "updateFeePercentage",
      "outputs": [],
      "stateMutability": "nonpayable",
      "type": "function"
    },
    {
      "inputs": [
        {
          "internalType": "address",
          "name": "_newOwner",
          "type": "address"
        }
      ],
      "name": "updateOwner",
      "outputs": [],
      "stateMutability": "nonpayable",
      "type": "function"
    },
    {
      "stateMutability": "payable",
      "type": "receive"
    }
  ],
  "bytecode": "0x608060405260056003553480156200001657600080fd5b506040516200422e3803806200422e83398181016040528101906200003c919062000355565b600160008190555081600260006101000a81548173ffffffffffffffffffffffffffffffffffffffff021916908373ffffffffffffffffffffffffffffffffffffffff16021790555033600160006101000a81548173ffffffffffffffffffffffffffffffffffffffff021916908373ffffffffffffffffffffffffffffffffffffffff16021790555060005b81518110156200015e576001600a6000848481518110620000ef57620000ee620003bb565b5b602002602001015173ffffffffffffffffffffffffffffffffffffffff1673ffffffffffffffffffffffffffffffffffffffff16815260200190815260200160002060006101000a81548160ff0219169083151502179055508080620001559062000423565b915050620000c9565b50505062000470565b6000604051905090565b600080fd5b600080fd5b600073ffffffffffffffffffffffffffffffffffffffff82169050919050565b6000620001a8826200017b565b9050919050565b620001ba816200019b565b8114620001c657600080fd5b50565b600081519050620001da81620001af565b92915050565b600080fd5b6000601f19601f8301169050919050565b7f4e487b7100000000000000000000000000000000000000000000000000000000600052604160045260246000fd5b6200023082620001e5565b810181811067ffffffffffffffff82111715620002525762000251620001f6565b5b80604052505050565b60006200026762000167565b905062000275828262000225565b919050565b600067ffffffffffffffff821115620002985762000297620001f6565b5b602082029050602081019050919050565b600080fd5b6000620002c5620002bf846200027a565b6200025b565b90508083825260208201905060208402830185811115620002eb57620002ea620002a9565b5b835b81811015620003185780620003038882620001c9565b845260208401935050602081019050620002ed565b5050509392505050565b600082601f8301126200033a5762000339620001e0565b5b81516200034c848260208601620002ae565b91505092915050565b600080604083850312156200036f576200036e62000171565b5b60006200037f85828601620001c9565b925050602083015167ffffffffffffffff811115620003a357620003a262000176565b5b620003b18582860162000322565b9150509250929050565b7f4e487b7100000000000000000000000000000000000000000000000000000000600052603260045260246000fd5b7f4e487b7100000000000000000000000000000000000000000000000000000000600052601160045260246000fd5b6000819050919050565b6000620004308262000419565b91507fffffffffffffffffffffffffffffffffffffffffffffffffffffffffffffffff8203620004655762000464620003ea565b5b600182019050919050565b613dae80620004806000396000f3fe60806040526004361061014f5760003560e01c80639926223c116100b6578063cc996d1b1161006f578063cc996d1b14610460578063ce6019b41461048b578063d38ea5bf146104c8578063dbd30ae0146104e4578063ed8a20af146104fb578063fff13ee71461052457610156565b80639926223c146103415780639979ef451461036c5780639b8bc12714610388578063a7bc77c6146103b3578063bfb231d2146103dc578063ca7dd3751461042357610156565b80636bfb0d01116101085780636bfb0d01146102475780636cad3fb0146102725780637fd6f15c1461029b578063809f976a146102c6578063880cdc31146102ef57806389bfd38f1461031857610156565b806312065fe01461015b5780633e8134e314610186578063438e897a1461019d57806344c8c893146101c857806365e17c9d146101f15780636605ff661461021c57610156565b3661015657005b600080fd5b34801561016757600080fd5b5061017061054d565b60405161017d9190612ab9565b60405180910390f35b34801561019257600080fd5b5061019b610555565b005b3480156101a957600080fd5b506101b261060d565b6040516101bf9190612ab9565b60405180910390f35b3480156101d457600080fd5b506101ef60048036038101906101ea9190612b14565b610613565b005b3480156101fd57600080fd5b50610206610c2e565b6040516102139190612b82565b60405180910390f35b34801561022857600080fd5b50610231610c54565b60405161023e9190612ab9565b60405180910390f35b34801561025357600080fd5b5061025c610c5a565b6040516102699190612ab9565b60405180910390f35b34801561027e57600080fd5b5061029960048036038101906102949190612b14565b610c60565b005b3480156102a757600080fd5b506102b0610cf6565b6040516102bd9190612ab9565b60405180910390f35b3480156102d257600080fd5b506102ed60048036038101906102e89190612d6c565b610cfc565b005b3480156102fb57600080fd5b5061031660048036038101906103119190612dc8565b610e21565b005b34801561032457600080fd5b5061033f600480360381019061033a9190612e33565b610ef5565b005b34801561034d57600080fd5b5061035661130c565b6040516103639190612ab9565b60405180910390f35b61038660048036038101906103819190612b14565b611312565b005b34801561039457600080fd5b5061039d6117b6565b6040516103aa91906130a3565b60405180910390f35b3480156103bf57600080fd5b506103da60048036038101906103d59190612b14565b611a73565b005b3480156103e857600080fd5b5061040360048036038101906103fe9190612b14565b611c93565b60405161041a9b9a999897969594939291906130e3565b60405180910390f35b34801561042f57600080fd5b5061044a60048036038101906104459190612b14565b611d87565b6040516104579190612ab9565b60405180910390f35b34801561046c57600080fd5b50610475611dcc565b6040516104829190612ab9565b60405180910390f35b34801561049757600080fd5b506104b260048036038101906104ad9190612dc8565b611dd2565b6040516104bf91906130a3565b60405180910390f35b6104e260048036038101906104dd9190612b14565b61217e565b005b3480156104f057600080fd5b506104f9612744565b005b34801561050757600080fd5b50610522600480360381019061051d919061318e565b6127fc565b005b34801561053057600080fd5b5061054b60048036038101906105469190612dc8565b6128bd565b005b600047905090565b600a60003373ffffffffffffffffffffffffffffffffffffffff1673ffffffffffffffffffffffffffffffffffffffff16815260200190815260200160002060009054906101000a900460ff166105e1576040517f08c379a00000000000000000000000000000000000000000000000000000000081526004016105d890613218565b60405180910390fd5b600960009054906101000a900460ff1615600960006101000a81548160ff021916908315150217905550565b60055481565b61061b612991565b6000600b600083815260200190815260200160002090508060050160009054906101000a900473ffffffffffffffffffffffffffffffffffffffff1673ffffffffffffffffffffffffffffffffffffffff163373ffffffffffffffffffffffffffffffffffffffff16146106c4576040517f08c379a00000000000000000000000000000000000000000000000000000000081526004016106bb90613284565b60405180910390fd5b600115158160060160159054906101000a900460ff1615151480156106f857508060060160149054906101000a900460ff16155b610737576040517f08c379a000000000000000000000000000000000000000000000000000000000815260040161072e906132f0565b60405180910390fd5b600081600701541161077e576040517f08c379a00000000000000000000000000000000000000000000000000000000081526004016107759061335c565b60405180910390fd5b600073ffffffffffffffffffffffffffffffffffffffff168160080160009054906101000a900473ffffffffffffffffffffffffffffffffffffffff1673ffffffffffffffffffffffffffffffffffffffff1603610811576040517f08c379a0000000000000000000000000000000000000000000000000000000008152600401610808906133c8565b60405180910390fd5b8060050160009054906101000a900473ffffffffffffffffffffffffffffffffffffffff1673ffffffffffffffffffffffffffffffffffffffff166108fc606460035484600701546108639190613417565b61086d9190613488565b836007015461087c91906134b9565b9081150290604051600060405180830381858888f193505050501580156108a7573d6000803e3d6000fd5b50600160009054906101000a900473ffffffffffffffffffffffffffffffffffffffff1673ffffffffffffffffffffffffffffffffffffffff166108fc606460035484600701546108f89190613417565b6109029190613488565b9081150290604051600060405180830381858888f1935050505015801561092d573d6000803e3d6000fd5b5060018160060160146101000a81548160ff02191690831515021790555060008160060160156101000a81548160ff021916908315150217905550600081600701819055508060080160009054906101000a900473ffffffffffffffffffffffffffffffffffffffff168160060160006101000a81548173ffffffffffffffffffffffffffffffffffffffff021916908373ffffffffffffffffffffffffffffffffffffffff16021790555060008160080160006101000a81548173ffffffffffffffffffffffffffffffffffffffff021916908373ffffffffffffffffffffffffffffffffffffffff16021790555060056000815480929190610a30906134ed565b9190505550806007015460066000828254610a4b9190613535565b9250508190555060646003548260070154610a669190613417565b610a709190613488565b8160070154610a7f91906134b9565b60076000828254610a909190613535565b925050819055508060010160009054906101000a900473ffffffffffffffffffffffffffffffffffffffff1673ffffffffffffffffffffffffffffffffffffffff166323b872dd303384600201546040518463ffffffff1660e01b8152600401610afc93929190613578565b600060405180830381600087803b158015610b1657600080fd5b505af1158015610b2a573d6000803e3d6000fd5b505050508060080160009054906101000a900473ffffffffffffffffffffffffffffffffffffffff1673ffffffffffffffffffffffffffffffffffffffff168160050160009054906101000a900473ffffffffffffffffffffffffffffffffffffffff1673ffffffffffffffffffffffffffffffffffffffff168260010160009054906101000a900473ffffffffffffffffffffffffffffffffffffffff1673ffffffffffffffffffffffffffffffffffffffff167f8b4c9c8a607d67b321582dd8461041b1dc2ceeca70c8b7f37f8e02095cf2e76d8585600201548660070154604051610c1a939291906135af565b60405180910390a450610c2b6129e0565b50565b600160009054906101000a900473ffffffffffffffffffffffffffffffffffffffff1681565b60065481565b60045481565b600a60003373ffffffffffffffffffffffffffffffffffffffff1673ffffffffffffffffffffffffffffffffffffffff16815260200190815260200160002060009054906101000a900460ff16610cec576040517f08c379a0000000000000000000000000000000000000000000000000000000008152600401610ce390613658565b60405180910390fd5b8060038190555050565b60035481565b600260009054906101000a900473ffffffffffffffffffffffffffffffffffffffff1673ffffffffffffffffffffffffffffffffffffffff163373ffffffffffffffffffffffffffffffffffffffff1614610d8c576040517f08c379a0000000000000000000000000000000000000000000000000000000008152600401610d83906136c4565b60405180910390fd5b60005b8251811015610e1c5781600a6000858481518110610db057610daf6136e4565b5b602002602001015173ffffffffffffffffffffffffffffffffffffffff1673ffffffffffffffffffffffffffffffffffffffff16815260200190815260200160002060006101000a81548160ff0219169083151502179055508080610e14906134ed565b915050610d8f565b505050565b600260009054906101000a900473ffffffffffffffffffffffffffffffffffffffff1673ffffffffffffffffffffffffffffffffffffffff163373ffffffffffffffffffffffffffffffffffffffff1614610eb1576040517f08c379a0000000000000000000000000000000000000000000000000000000008152600401610ea89061375f565b60405180910390fd5b80600260006101000a81548173ffffffffffffffffffffffffffffffffffffffff021916908373ffffffffffffffffffffffffffffffffffffffff16021790555050565b610efd612991565b600960009054906101000a900460ff1615610f4d576040517f08c379a0000000000000000000000000000000000000000000000000000000008152600401610f44906137cb565b60405180910390fd5b60008111610f90576040517f08c379a0000000000000000000000000000000000000000000000000000000008152600401610f8790613837565b60405180910390fd5b60046000815480929190610fa3906134ed565b91905055508273ffffffffffffffffffffffffffffffffffffffff166323b872dd3330856040518463ffffffff1660e01b8152600401610fe593929190613578565b600060405180830381600087803b158015610fff57600080fd5b505af1158015611013573d6000803e3d6000fd5b5050505060405180610160016040528060045481526020018473ffffffffffffffffffffffffffffffffffffffff168152602001838152602001828152602001606460035460646110649190613535565b8461106f9190613417565b6110799190613488565b81526020013373ffffffffffffffffffffffffffffffffffffffff168152602001600073ffffffffffffffffffffffffffffffffffffffff16815260200160001515815260200160011515815260200160008152602001600073ffffffffffffffffffffffffffffffffffffffff16815250600b600060045481526020019081526020016000206000820151816000015560208201518160010160006101000a81548173ffffffffffffffffffffffffffffffffffffffff021916908373ffffffffffffffffffffffffffffffffffffffff16021790555060408201518160020155606082015181600301556080820151816004015560a08201518160050160006101000a81548173ffffffffffffffffffffffffffffffffffffffff021916908373ffffffffffffffffffffffffffffffffffffffff16021790555060c08201518160060160006101000a81548173ffffffffffffffffffffffffffffffffffffffff021916908373ffffffffffffffffffffffffffffffffffffffff16021790555060e08201518160060160146101000a81548160ff0219169083151502179055506101008201518160060160156101000a81548160ff02191690831515021790555061012082015181600701556101408201518160080160006101000a81548173ffffffffffffffffffffffffffffffffffffffff021916908373ffffffffffffffffffffffffffffffffffffffff1602179055509050503373ffffffffffffffffffffffffffffffffffffffff168373ffffffffffffffffffffffffffffffffffffffff167f655a0cf9c8db81512be9a76dc1c5ae5380b8816ce6ad659cd61b715e2999d59a60045485856040516112f7939291906135af565b60405180910390a36113076129e0565b505050565b60075481565b61131a612991565b6000600b6000838152602001908152602001600020905060003411611374576040517f08c379a000000000000000000000000000000000000000000000000000000000815260040161136b906138a3565b60405180910390fd5b8060060160159054906101000a900460ff166113c5576040517f08c379a00000000000000000000000000000000000000000000000000000000081526004016113bc906132f0565b60405180910390fd5b8060050160009054906101000a900473ffffffffffffffffffffffffffffffffffffffff1673ffffffffffffffffffffffffffffffffffffffff163373ffffffffffffffffffffffffffffffffffffffff1603611457576040517f08c379a000000000000000000000000000000000000000000000000000000000815260040161144e9061390f565b60405180910390fd5b8060070154341161149d576040517f08c379a00000000000000000000000000000000000000000000000000000000081526004016114949061397b565b60405180910390fd5b8060080160009054906101000a900473ffffffffffffffffffffffffffffffffffffffff1673ffffffffffffffffffffffffffffffffffffffff168160080160009054906101000a900473ffffffffffffffffffffffffffffffffffffffff1673ffffffffffffffffffffffffffffffffffffffff16141580156115725750600073ffffffffffffffffffffffffffffffffffffffff168160080160009054906101000a900473ffffffffffffffffffffffffffffffffffffffff1673ffffffffffffffffffffffffffffffffffffffff1614155b15611604578060080160009054906101000a900473ffffffffffffffffffffffffffffffffffffffff1673ffffffffffffffffffffffffffffffffffffffff166108fc82600701549081150290604051600060405180830381858888f193505050501580156115e5573d6000803e3d6000fd5b508060070154600860008282546115fc91906134b9565b925050819055505b348160070181905550338160080160006101000a81548173ffffffffffffffffffffffffffffffffffffffff021916908373ffffffffffffffffffffffffffffffffffffffff1602179055503073ffffffffffffffffffffffffffffffffffffffff166108fc349081150290604051600060405180830381858888f19350505050158015611696573d6000803e3d6000fd5b5034600860008282546116a99190613535565b925050819055508060080160009054906101000a900473ffffffffffffffffffffffffffffffffffffffff1673ffffffffffffffffffffffffffffffffffffffff168160050160009054906101000a900473ffffffffffffffffffffffffffffffffffffffff1673ffffffffffffffffffffffffffffffffffffffff168260010160009054906101000a900473ffffffffffffffffffffffffffffffffffffffff1673ffffffffffffffffffffffffffffffffffffffff167f9fe059e164b50e38047a1c82286ad34a561c63ce095ecdb17d903393d7aaf08e858560020154866003015487600701546040516117a2949392919061399b565b60405180910390a4506117b36129e0565b50565b606060006005546004546117ca91906134b9565b905060008167ffffffffffffffff8111156117e8576117e7612bb3565b5b60405190808252806020026020018201604052801561182157816020015b61180e6129ea565b8152602001906001900390816118065790505b509050600080600190505b838111611a69576000600b600083815260200190815260200160002060405180610160016040529081600082015481526020016001820160009054906101000a900473ffffffffffffffffffffffffffffffffffffffff1673ffffffffffffffffffffffffffffffffffffffff1673ffffffffffffffffffffffffffffffffffffffff1681526020016002820154815260200160038201548152602001600482015481526020016005820160009054906101000a900473ffffffffffffffffffffffffffffffffffffffff1673ffffffffffffffffffffffffffffffffffffffff1673ffffffffffffffffffffffffffffffffffffffff1681526020016006820160009054906101000a900473ffffffffffffffffffffffffffffffffffffffff1673ffffffffffffffffffffffffffffffffffffffff1673ffffffffffffffffffffffffffffffffffffffff1681526020016006820160149054906101000a900460ff161515151581526020016006820160159054906101000a900460ff16151515158152602001600782015481526020016008820160009054906101000a900473ffffffffffffffffffffffffffffffffffffffff1673ffffffffffffffffffffffffffffffffffffffff1673ffffffffffffffffffffffffffffffffffffffff1681525050905060011515816101000151151503611a555780848481518110611a3b57611a3a6136e4565b5b60200260200101819052508280611a51906134ed565b9350505b508080611a61906134ed565b91505061182c565b5081935050505090565b611a7b612991565b6000600b600083815260200190815260200160002090508060050160009054906101000a900473ffffffffffffffffffffffffffffffffffffffff1673ffffffffffffffffffffffffffffffffffffffff163373ffffffffffffffffffffffffffffffffffffffff1614611b24576040517f08c379a0000000000000000000000000000000000000000000000000000000008152600401611b1b90613a2c565b60405180910390fd5b600115158160060160159054906101000a900460ff161515148015611b5857508060060160149054906101000a900460ff16155b611b97576040517f08c379a0000000000000000000000000000000000000000000000000000000008152600401611b8e906132f0565b60405180910390fd5b6000600b600084815260200190815260200160002060060160156101000a81548160ff02191690831515021790555060008160010160009054906101000a900473ffffffffffffffffffffffffffffffffffffffff1690508073ffffffffffffffffffffffffffffffffffffffff166323b872dd308460050160009054906101000a900473ffffffffffffffffffffffffffffffffffffffff1685600201546040518463ffffffff1660e01b8152600401611c5493929190613a6d565b600060405180830381600087803b158015611c6e57600080fd5b505af1158015611c82573d6000803e3d6000fd5b505050505050611c906129e0565b50565b600b6020528060005260406000206000915090508060000154908060010160009054906101000a900473ffffffffffffffffffffffffffffffffffffffff16908060020154908060030154908060040154908060050160009054906101000a900473ffffffffffffffffffffffffffffffffffffffff16908060060160009054906101000a900473ffffffffffffffffffffffffffffffffffffffff16908060060160149054906101000a900460ff16908060060160159054906101000a900460ff16908060070154908060080160009054906101000a900473ffffffffffffffffffffffffffffffffffffffff1690508b565b600060646003546064611d9a9190613535565b600b600085815260200190815260200160002060030154611dbb9190613417565b611dc59190613488565b9050919050565b60085481565b60606000600554600454611de691906134b9565b905060008167ffffffffffffffff811115611e0457611e03612bb3565b5b604051908082528060200260200182016040528015611e3d57816020015b611e2a6129ea565b815260200190600190039081611e225790505b509050600080600190505b8381116120c1576000600b600083815260200190815260200160002060405180610160016040529081600082015481526020016001820160009054906101000a900473ffffffffffffffffffffffffffffffffffffffff1673ffffffffffffffffffffffffffffffffffffffff1673ffffffffffffffffffffffffffffffffffffffff1681526020016002820154815260200160038201548152602001600482015481526020016005820160009054906101000a900473ffffffffffffffffffffffffffffffffffffffff1673ffffffffffffffffffffffffffffffffffffffff1673ffffffffffffffffffffffffffffffffffffffff1681526020016006820160009054906101000a900473ffffffffffffffffffffffffffffffffffffffff1673ffffffffffffffffffffffffffffffffffffffff1673ffffffffffffffffffffffffffffffffffffffff1681526020016006820160149054906101000a900460ff161515151581526020016006820160159054906101000a900460ff16151515158152602001600782015481526020016008820160009054906101000a900473ffffffffffffffffffffffffffffffffffffffff1673ffffffffffffffffffffffffffffffffffffffff1673ffffffffffffffffffffffffffffffffffffffff168152505090508673ffffffffffffffffffffffffffffffffffffffff168160a0015173ffffffffffffffffffffffffffffffffffffffff1614801561207a5750600115158161010001511515145b156120ad5780848481518110612093576120926136e4565b5b602002602001018190525082806120a9906134ed565b9350505b5080806120b9906134ed565b915050611e48565b5060008167ffffffffffffffff8111156120de576120dd612bb3565b5b60405190808252806020026020018201604052801561211757816020015b6121046129ea565b8152602001906001900390816120fc5790505b50905060005b8281101561217157838181518110612138576121376136e4565b5b6020026020010151828281518110612153576121526136e4565b5b60200260200101819052508080612169906134ed565b91505061211d565b5080945050505050919050565b612186612991565b600960019054906101000a900460ff16156121d6576040517f08c379a00000000000000000000000000000000000000000000000000000000081526004016121cd90613af0565b60405180910390fd5b60006121e182611d87565b90506000600b6000848152602001908152602001600020905060008311801561220c57506004548311155b61224b576040517f08c379a000000000000000000000000000000000000000000000000000000000815260040161224290613b5c565b60405180910390fd5b8134101561228e576040517f08c379a000000000000000000000000000000000000000000000000000000000815260040161228590613bee565b60405180910390fd5b8060060160149054906101000a900460ff16156122e0576040517f08c379a00000000000000000000000000000000000000000000000000000000081526004016122d790613c5a565b60405180910390fd5b600073ffffffffffffffffffffffffffffffffffffffff168160080160009054906101000a900473ffffffffffffffffffffffffffffffffffffffff1673ffffffffffffffffffffffffffffffffffffffff16146123c5578060080160009054906101000a900473ffffffffffffffffffffffffffffffffffffffff1673ffffffffffffffffffffffffffffffffffffffff166108fc82600701549081150290604051600060405180830381858888f193505050501580156123a6573d6000803e3d6000fd5b508060070154600860008282546123bd91906134b9565b925050819055505b8060050160009054906101000a900473ffffffffffffffffffffffffffffffffffffffff1673ffffffffffffffffffffffffffffffffffffffff166108fc82600301549081150290604051600060405180830381858888f19350505050158015612433573d6000803e3d6000fd5b50600160009054906101000a900473ffffffffffffffffffffffffffffffffffffffff1673ffffffffffffffffffffffffffffffffffffffff166108fc82600301548461248091906134b9565b9081150290604051600060405180830381858888f193505050501580156124ab573d6000803e3d6000fd5b5060018160060160146101000a81548160ff02191690831515021790555060008160060160156101000a81548160ff0219169083151502179055506000816007018190555060008160080160006101000a81548173ffffffffffffffffffffffffffffffffffffffff021916908373ffffffffffffffffffffffffffffffffffffffff160217905550338160060160006101000a81548173ffffffffffffffffffffffffffffffffffffffff021916908373ffffffffffffffffffffffffffffffffffffffff1602179055508060010160009054906101000a900473ffffffffffffffffffffffffffffffffffffffff1673ffffffffffffffffffffffffffffffffffffffff166323b872dd303384600201546040518463ffffffff1660e01b81526004016125dc93929190613578565b600060405180830381600087803b1580156125f657600080fd5b505af115801561260a573d6000803e3d6000fd5b5050505060056000815480929190612621906134ed565b919050555081600660008282546126389190613535565b9250508190555080600301548261264f91906134b9565b600760008282546126609190613535565b925050819055503373ffffffffffffffffffffffffffffffffffffffff168160050160009054906101000a900473ffffffffffffffffffffffffffffffffffffffff1673ffffffffffffffffffffffffffffffffffffffff168260010160009054906101000a900473ffffffffffffffffffffffffffffffffffffffff1673ffffffffffffffffffffffffffffffffffffffff167f8b4c9c8a607d67b321582dd8461041b1dc2ceeca70c8b7f37f8e02095cf2e76d868560020154866003015460405161272f939291906135af565b60405180910390a450506127416129e0565b50565b600a60003373ffffffffffffffffffffffffffffffffffffffff1673ffffffffffffffffffffffffffffffffffffffff16815260200190815260200160002060009054906101000a900460ff166127d0576040517f08c379a00000000000000000000000000000000000000000000000000000000081526004016127c790613218565b60405180910390fd5b600960019054906101000a900460ff1615600960016101000a81548160ff021916908315150217905550565b600a60003373ffffffffffffffffffffffffffffffffffffffff1673ffffffffffffffffffffffffffffffffffffffff16815260200190815260200160002060009054906101000a900460ff16612888576040517f08c379a000000000000000000000000000000000000000000000000000000000815260040161287f90613218565b60405180910390fd5b80600960016101000a81548160ff0219169083151502179055600960006101000a81548160ff02191690831515021790555050565b600260009054906101000a900473ffffffffffffffffffffffffffffffffffffffff1673ffffffffffffffffffffffffffffffffffffffff163373ffffffffffffffffffffffffffffffffffffffff161461294d576040517f08c379a000000000000000000000000000000000000000000000000000000000815260040161294490613cec565b60405180910390fd5b80600160006101000a81548173ffffffffffffffffffffffffffffffffffffffff021916908373ffffffffffffffffffffffffffffffffffffffff16021790555050565b6002600054036129d6576040517f08c379a00000000000000000000000000000000000000000000000000000000081526004016129cd90613d58565b60405180910390fd5b6002600081905550565b6001600081905550565b60405180610160016040528060008152602001600073ffffffffffffffffffffffffffffffffffffffff168152602001600081526020016000815260200160008152602001600073ffffffffffffffffffffffffffffffffffffffff168152602001600073ffffffffffffffffffffffffffffffffffffffff16815260200160001515815260200160001515815260200160008152602001600073ffffffffffffffffffffffffffffffffffffffff1681525090565b6000819050919050565b612ab381612aa0565b82525050565b6000602082019050612ace6000830184612aaa565b92915050565b6000604051905090565b600080fd5b600080fd5b612af181612aa0565b8114612afc57600080fd5b50565b600081359050612b0e81612ae8565b92915050565b600060208284031215612b2a57612b29612ade565b5b6000612b3884828501612aff565b91505092915050565b600073ffffffffffffffffffffffffffffffffffffffff82169050919050565b6000612b6c82612b41565b9050919050565b612b7c81612b61565b82525050565b6000602082019050612b976000830184612b73565b92915050565b600080fd5b6000601f19601f8301169050919050565b7f4e487b7100000000000000000000000000000000000000000000000000000000600052604160045260246000fd5b612beb82612ba2565b810181811067ffffffffffffffff82111715612c0a57612c09612bb3565b5b80604052505050565b6000612c1d612ad4565b9050612c298282612be2565b919050565b600067ffffffffffffffff821115612c4957612c48612bb3565b5b602082029050602081019050919050565b600080fd5b6000612c6a82612b41565b9050919050565b612c7a81612c5f565b8114612c8557600080fd5b50565b600081359050612c9781612c71565b92915050565b6000612cb0612cab84612c2e565b612c13565b90508083825260208201905060208402830185811115612cd357612cd2612c5a565b5b835b81811015612cfc5780612ce88882612c88565b845260208401935050602081019050612cd5565b5050509392505050565b600082601f830112612d1b57612d1a612b9d565b5b8135612d2b848260208601612c9d565b91505092915050565b60008115159050919050565b612d4981612d34565b8114612d5457600080fd5b50565b600081359050612d6681612d40565b92915050565b60008060408385031215612d8357612d82612ade565b5b600083013567ffffffffffffffff811115612da157612da0612ae3565b5b612dad85828601612d06565b9250506020612dbe85828601612d57565b9150509250929050565b600060208284031215612dde57612ddd612ade565b5b6000612dec84828501612c88565b91505092915050565b6000612e0082612c5f565b9050919050565b612e1081612df5565b8114612e1b57600080fd5b50565b600081359050612e2d81612e07565b92915050565b600080600060608486031215612e4c57612e4b612ade565b5b6000612e5a86828701612e1e565b9350506020612e6b86828701612aff565b9250506040612e7c86828701612aff565b9150509250925092565b600081519050919050565b600082825260208201905092915050565b6000819050602082019050919050565b612ebb81612aa0565b82525050565b6000819050919050565b6000612ee6612ee1612edc84612b41565b612ec1565b612b41565b9050919050565b6000612ef882612ecb565b9050919050565b6000612f0a82612eed565b9050919050565b612f1a81612eff565b82525050565b612f2981612b61565b82525050565b612f3881612d34565b82525050565b61016082016000820151612f556000850182612eb2565b506020820151612f686020850182612f11565b506040820151612f7b6040850182612eb2565b506060820151612f8e6060850182612eb2565b506080820151612fa16080850182612eb2565b5060a0820151612fb460a0850182612f20565b5060c0820151612fc760c0850182612f20565b5060e0820151612fda60e0850182612f2f565b50610100820151612fef610100850182612f2f565b50610120820151613004610120850182612eb2565b50610140820151613019610140850182612f20565b50505050565b600061302b8383612f3e565b6101608301905092915050565b6000602082019050919050565b600061305082612e86565b61305a8185612e91565b935061306583612ea2565b8060005b8381101561309657815161307d888261301f565b975061308883613038565b925050600181019050613069565b5085935050505092915050565b600060208201905081810360008301526130bd8184613045565b905092915050565b6130ce81612eff565b82525050565b6130dd81612d34565b82525050565b6000610160820190506130f9600083018e612aaa565b613106602083018d6130c5565b613113604083018c612aaa565b613120606083018b612aaa565b61312d608083018a612aaa565b61313a60a0830189612b73565b61314760c0830188612b73565b61315460e08301876130d4565b6131626101008301866130d4565b613170610120830185612aaa565b61317e610140830184612b73565b9c9b505050505050505050505050565b6000602082840312156131a4576131a3612ade565b5b60006131b284828501612d57565b91505092915050565b600082825260208201905092915050565b7f4f6e6c792061646d696e732063616e207061757365204c697374696e67000000600082015250565b6000613202601d836131bb565b915061320d826131cc565b602082019050919050565b60006020820190508181036000830152613231816131f5565b9050919050565b7f4f6e6c792073656c6c65722063616e20686f6e6f722061206269640000000000600082015250565b600061326e601b836131bb565b915061327982613238565b602082019050919050565b6000602082019050818103600083015261329d81613261565b9050919050565b7f4974656d206973206e6f74206c69737465640000000000000000000000000000600082015250565b60006132da6012836131bb565b91506132e5826132a4565b602082019050919050565b60006020820190508181036000830152613309816132cd565b9050919050565b7f4e6f2062696420666f756e640000000000000000000000000000000000000000600082015250565b6000613346600c836131bb565b915061335182613310565b602082019050919050565b6000602082019050818103600083015261337581613339565b9050919050565b7f4d7573742062652061206e6f6e2d7a65726f2061646472657373000000000000600082015250565b60006133b2601a836131bb565b91506133bd8261337c565b602082019050919050565b600060208201905081810360008301526133e1816133a5565b9050919050565b7f4e487b7100000000000000000000000000000000000000000000000000000000600052601160045260246000fd5b600061342282612aa0565b915061342d83612aa0565b925082820261343b81612aa0565b91508282048414831517613452576134516133e8565b5b5092915050565b7f4e487b7100000000000000000000000000000000000000000000000000000000600052601260045260246000fd5b600061349382612aa0565b915061349e83612aa0565b9250826134ae576134ad613459565b5b828204905092915050565b60006134c482612aa0565b91506134cf83612aa0565b92508282039050818111156134e7576134e66133e8565b5b92915050565b60006134f882612aa0565b91507fffffffffffffffffffffffffffffffffffffffffffffffffffffffffffffffff820361352a576135296133e8565b5b600182019050919050565b600061354082612aa0565b915061354b83612aa0565b9250828201905080821115613563576135626133e8565b5b92915050565b61357281612c5f565b82525050565b600060608201905061358d6000830186613569565b61359a6020830185613569565b6135a76040830184612aaa565b949350505050565b60006060820190506135c46000830186612aaa565b6135d16020830185612aaa565b6135de6040830184612aaa565b949350505050565b7f6f6e6c792061646d696e2063616e207570646174652066656550657263656e7460008201527f6167650000000000000000000000000000000000000000000000000000000000602082015250565b60006136426023836131bb565b915061364d826135e6565b604082019050919050565b6000602082019050818103600083015261367181613635565b9050919050565b7f6f6e6c79206f776e65722063616e206164642061646d696e0000000000000000600082015250565b60006136ae6018836131bb565b91506136b982613678565b602082019050919050565b600060208201905081810360008301526136dd816136a1565b9050919050565b7f4e487b7100000000000000000000000000000000000000000000000000000000600052603260045260246000fd5b7f6f6e6c79206f776e65722063616e2063616e20757064617465206f776e657200600082015250565b6000613749601f836131bb565b915061375482613713565b602082019050919050565b600060208201905081810360008301526137788161373c565b9050919050565b7f4c697374696e6720697320706175736564000000000000000000000000000000600082015250565b60006137b56011836131bb565b91506137c08261377f565b602082019050919050565b600060208201905081810360008301526137e4816137a8565b9050919050565b7f5072696365206d7573742062652067726561746572207468616e207a65726f00600082015250565b6000613821601f836131bb565b915061382c826137eb565b602082019050919050565b6000602082019050818103600083015261385081613814565b9050919050565b7f666565206e6f74206265207a65726f0000000000000000000000000000000000600082015250565b600061388d600f836131bb565b915061389882613857565b602082019050919050565b600060208201905081810360008301526138bc81613880565b9050919050565b7f53656c6c65722063616e6e6f74206d616b652062696400000000000000000000600082015250565b60006138f96016836131bb565b9150613904826138c3565b602082019050919050565b60006020820190508181036000830152613928816138ec565b9050919050565b7f4c657373207468616e2070726573656e74206269640000000000000000000000600082015250565b60006139656015836131bb565b91506139708261392f565b602082019050919050565b6000602082019050818103600083015261399481613958565b9050919050565b60006080820190506139b06000830187612aaa565b6139bd6020830186612aaa565b6139ca6040830185612aaa565b6139d76060830184612aaa565b95945050505050565b7f4f6e6c792073656c6c65722063616e20756e6c697374204974656d0000000000600082015250565b6000613a16601b836131bb565b9150613a21826139e0565b602082019050919050565b60006020820190508181036000830152613a4581613a09565b9050919050565b6000613a5782612eed565b9050919050565b613a6781613a4c565b82525050565b6000606082019050613a826000830186613569565b613a8f6020830185613a5e565b613a9c6040830184612aaa565b949350505050565b7f5075726368617365206973207061757365640000000000000000000000000000600082015250565b6000613ada6012836131bb565b9150613ae582613aa4565b602082019050919050565b60006020820190508181036000830152613b0981613acd565b9050919050565b7f6974656d20646f65736e27742065786973740000000000000000000000000000600082015250565b6000613b466012836131bb565b9150613b5182613b10565b602082019050919050565b60006020820190508181036000830152613b7581613b39565b9050919050565b7f6e6f7420656e6f75676820657468657220746f20636f766572206974656d207060008201527f7269636520616e64206d61726b65742066656500000000000000000000000000602082015250565b6000613bd86033836131bb565b9150613be382613b7c565b604082019050919050565b60006020820190508181036000830152613c0781613bcb565b9050919050565b7f6974656d20616c726561647920736f6c64000000000000000000000000000000600082015250565b6000613c446011836131bb565b9150613c4f82613c0e565b602082019050919050565b60006020820190508181036000830152613c7381613c37565b9050919050565b7f6f6e6c79206f776e65722063616e2075706461746520666565206163636f756e60008201527f7400000000000000000000000000000000000000000000000000000000000000602082015250565b6000613cd66021836131bb565b9150613ce182613c7a565b604082019050919050565b60006020820190508181036000830152613d0581613cc9565b9050919050565b7f5265656e7472616e637947756172643a207265656e7472616e742063616c6c00600082015250565b6000613d42601f836131bb565b9150613d4d82613d0c565b602082019050919050565b60006020820190508181036000830152613d7181613d35565b905091905056fea2646970667358221220c23576325681b544845ed517ebfe573a5ddf725c868f4705e68292b3e8a50bb164736f6c63430008110033",
  "linkReferences": {},
  "deployedLinkReferences": {}
}