{
  "_format": "hh-sol-artifact-1",
  "contractName": "NFT",
  "sourceName": "contracts/NFT.sol",
  "abi": [
    {
      "inputs": [
        {
          "internalType": "string",
          "name": "name",
          "type": "string"
        },
        {
          "internalType": "string",
          "name": "symbol",
          "type": "string"
        },
        {
          "internalType": "uint256",
          "name": "_maxSupply",
          "type": "uint256"
        },
        {
          "internalType": "string",
          "name": "_baseURI_",
          "type": "string"
        },
        {
          "internalType": "uint256",
          "name": "_mintPrice",
          "type": "uint256"
        }
      ],
      "stateMutability": "nonpayable",
      "type": "constructor"
    },
    {
      "anonymous": false,
      "inputs": [
        {
          "indexed": true,
          "internalType": "address",
          "name": "owner",
          "type": "address"
        },
        {
          "indexed": true,
          "internalType": "address",
          "name": "approved",
          "type": "address"
        },
        {
          "indexed": true,
          "internalType": "uint256",
          "name": "tokenId",
          "type": "uint256"
        }
      ],
      "name": "Approval",
      "type": "event"
    },
    {
      "anonymous": false,
      "inputs": [
        {
          "indexed": true,
          "internalType": "address",
          "name": "owner",
          "type": "address"
        },
        {
          "indexed": true,
          "internalType": "address",
          "name": "operator",
          "type": "address"
        },
        {
          "indexed": false,
          "internalType": "bool",
          "name": "approved",
          "type": "bool"
        }
      ],
      "name": "ApprovalForAll",
      "type": "event"
    },
    {
      "anonymous": false,
      "inputs": [
        {
          "indexed": true,
          "internalType": "address",
          "name": "previousOwner",
          "type": "address"
        },
        {
          "indexed": true,
          "internalType": "address",
          "name": "newOwner",
          "type": "address"
        }
      ],
      "name": "OwnershipTransferred",
      "type": "event"
    },
    {
      "anonymous": false,
      "inputs": [
        {
          "indexed": false,
          "internalType": "address",
          "name": "account",
          "type": "address"
        }
      ],
      "name": "Paused",
      "type": "event"
    },
    {
      "anonymous": false,
      "inputs": [
        {
          "indexed": true,
          "internalType": "address",
          "name": "from",
          "type": "address"
        },
        {
          "indexed": true,
          "internalType": "address",
          "name": "to",
          "type": "address"
        },
        {
          "indexed": true,
          "internalType": "uint256",
          "name": "tokenId",
          "type": "uint256"
        }
      ],
      "name": "Transfer",
      "type": "event"
    },
    {
      "anonymous": false,
      "inputs": [
        {
          "indexed": false,
          "internalType": "address",
          "name": "account",
          "type": "address"
        }
      ],
      "name": "Unpaused",
      "type": "event"
    },
    {
      "inputs": [
        {
          "internalType": "address",
          "name": "to",
          "type": "address"
        },
        {
          "internalType": "uint256",
          "name": "tokenId",
          "type": "uint256"
        }
      ],
      "name": "approve",
      "outputs": [],
      "stateMutability": "nonpayable",
      "type": "function"
    },
    {
      "inputs": [
        {
          "internalType": "address",
          "name": "owner",
          "type": "address"
        }
      ],
      "name": "balanceOf",
      "outputs": [
        {
          "internalType": "uint256",
          "name": "",
          "type": "uint256"
        }
      ],
      "stateMutability": "view",
      "type": "function"
    },
    {
      "inputs": [],
      "name": "baseURI",
      "outputs": [
        {
          "internalType": "string",
          "name": "",
          "type": "string"
        }
      ],
      "stateMutability": "view",
      "type": "function"
    },
    {
      "inputs": [
        {
          "internalType": "uint256",
          "name": "tokenId",
          "type": "uint256"
        }
      ],
      "name": "burn",
      "outputs": [],
      "stateMutability": "nonpayable",
      "type": "function"
    },
    {
      "inputs": [
        {
          "internalType": "uint256",
          "name": "tokenId",
          "type": "uint256"
        }
      ],
      "name": "getApproved",
      "outputs": [
        {
          "internalType": "address",
          "name": "",
          "type": "address"
        }
      ],
      "stateMutability": "view",
      "type": "function"
    },
    {
      "inputs": [],
      "name": "getPublicMintBalance",
      "outputs": [
        {
          "internalType": "uint256",
          "name": "",
          "type": "uint256"
        }
      ],
      "stateMutability": "view",
      "type": "function"
    },
    {
      "inputs": [
        {
          "internalType": "address",
          "name": "owner",
          "type": "address"
        },
        {
          "internalType": "address",
          "name": "operator",
          "type": "address"
        }
      ],
      "name": "isApprovedForAll",
      "outputs": [
        {
          "internalType": "bool",
          "name": "",
          "type": "bool"
        }
      ],
      "stateMutability": "view",
      "type": "function"
    },
    {
      "inputs": [],
      "name": "maxSupply",
      "outputs": [
        {
          "internalType": "uint256",
          "name": "",
          "type": "uint256"
        }
      ],
      "stateMutability": "view",
      "type": "function"
    },
    {
      "inputs": [],
      "name": "mintPrice",
      "outputs": [
        {
          "internalType": "uint256",
          "name": "",
          "type": "uint256"
        }
      ],
      "stateMutability": "view",
      "type": "function"
    },
    {
      "inputs": [],
      "name": "name",
      "outputs": [
        {
          "internalType": "string",
          "name": "",
          "type": "string"
        }
      ],
      "stateMutability": "view",
      "type": "function"
    },
    {
      "inputs": [],
      "name": "nonce",
      "outputs": [
        {
          "internalType": "uint256",
          "name": "",
          "type": "uint256"
        }
      ],
      "stateMutability": "view",
      "type": "function"
    },
    {
      "inputs": [],
      "name": "owner",
      "outputs": [
        {
          "internalType": "address",
          "name": "",
          "type": "address"
        }
      ],
      "stateMutability": "view",
      "type": "function"
    },
    {
      "inputs": [
        {
          "internalType": "uint256",
          "name": "tokenId",
          "type": "uint256"
        }
      ],
      "name": "ownerOf",
      "outputs": [
        {
          "internalType": "address",
          "name": "",
          "type": "address"
        }
      ],
      "stateMutability": "view",
      "type": "function"
    },
    {
      "inputs": [],
      "name": "pause",
      "outputs": [],
      "stateMutability": "nonpayable",
      "type": "function"
    },
    {
      "inputs": [],
      "name": "paused",
      "outputs": [
        {
          "internalType": "bool",
          "name": "",
          "type": "bool"
        }
      ],
      "stateMutability": "view",
      "type": "function"
    },
    {
      "inputs": [],
      "name": "publicMint",
      "outputs": [],
      "stateMutability": "payable",
      "type": "function"
    },
    {
      "inputs": [],
      "name": "renounceOwnership",
      "outputs": [],
      "stateMutability": "nonpayable",
      "type": "function"
    },
    {
      "inputs": [
        {
          "internalType": "address",
          "name": "to",
          "type": "address"
        }
      ],
      "name": "safeMint",
      "outputs": [],
      "stateMutability": "nonpayable",
      "type": "function"
    },
    {
      "inputs": [
        {
          "internalType": "address",
          "name": "from",
          "type": "address"
        },
        {
          "internalType": "address",
          "name": "to",
          "type": "address"
        },
        {
          "internalType": "uint256",
          "name": "tokenId",
          "type": "uint256"
        }
      ],
      "name": "safeTransferFrom",
      "outputs": [],
      "stateMutability": "nonpayable",
      "type": "function"
    },
    {
      "inputs": [
        {
          "internalType": "address",
          "name": "from",
          "type": "address"
        },
        {
          "internalType": "address",
          "name": "to",
          "type": "address"
        },
        {
          "internalType": "uint256",
          "name": "tokenId",
          "type": "uint256"
        },
        {
          "internalType": "bytes",
          "name": "data",
          "type": "bytes"
        }
      ],
      "name": "safeTransferFrom",
      "outputs": [],
      "stateMutability": "nonpayable",
      "type": "function"
    },
    {
      "inputs": [
        {
          "internalType": "address",
          "name": "operator",
          "type": "address"
        },
        {
          "internalType": "bool",
          "name": "approved",
          "type": "bool"
        }
      ],
      "name": "setApprovalForAll",
      "outputs": [],
      "stateMutability": "nonpayable",
      "type": "function"
    },
    {
      "inputs": [
        {
          "internalType": "bytes4",
          "name": "interfaceId",
          "type": "bytes4"
        }
      ],
      "name": "supportsInterface",
      "outputs": [
        {
          "internalType": "bool",
          "name": "",
          "type": "bool"
        }
      ],
      "stateMutability": "view",
      "type": "function"
    },
    {
      "inputs": [],
      "name": "symbol",
      "outputs": [
        {
          "internalType": "string",
          "name": "",
          "type": "string"
        }
      ],
      "stateMutability": "view",
      "type": "function"
    },
    {
      "inputs": [
        {
          "internalType": "uint256",
          "name": "index",
          "type": "uint256"
        }
      ],
      "name": "tokenByIndex",
      "outputs": [
        {
          "internalType": "uint256",
          "name": "",
          "type": "uint256"
        }
      ],
      "stateMutability": "view",
      "type": "function"
    },
    {
      "inputs": [
        {
          "internalType": "address",
          "name": "owner",
          "type": "address"
        },
        {
          "internalType": "uint256",
          "name": "index",
          "type": "uint256"
        }
      ],
      "name": "tokenOfOwnerByIndex",
      "outputs": [
        {
          "internalType": "uint256",
          "name": "",
          "type": "uint256"
        }
      ],
      "stateMutability": "view",
      "type": "function"
    },
    {
      "inputs": [
        {
          "internalType": "uint256",
          "name": "tokenId",
          "type": "uint256"
        }
      ],
      "name": "tokenURI",
      "outputs": [
        {
          "internalType": "string",
          "name": "",
          "type": "string"
        }
      ],
      "stateMutability": "view",
      "type": "function"
    },
    {
      "inputs": [],
      "name": "totalSupply",
      "outputs": [
        {
          "internalType": "uint256",
          "name": "",
          "type": "uint256"
        }
      ],
      "stateMutability": "view",
      "type": "function"
    },
    {
      "inputs": [
        {
          "internalType": "address",
          "name": "from",
          "type": "address"
        },
        {
          "internalType": "address",
          "name": "to",
          "type": "address"
        },
        {
          "internalType": "uint256",
          "name": "tokenId",
          "type": "uint256"
        }
      ],
      "name": "transferFrom",
      "outputs": [],
      "stateMutability": "nonpayable",
      "type": "function"
    },
    {
      "inputs": [
        {
          "internalType": "address",
          "name": "newOwner",
          "type": "address"
        }
      ],
      "name": "transferOwnership",
      "outputs": [],
      "stateMutability": "nonpayable",
      "type": "function"
    },
    {
      "inputs": [],
      "name": "unpause",
      "outputs": [],
      "stateMutability": "nonpayable",
      "type": "function"
    },
    {
      "inputs": [],
      "name": "withdraw",
      "outputs": [],
      "stateMutability": "nonpayable",
      "type": "function"
    }
  ],
  "bytecode": "0x60806040526000600b553480156200001657600080fd5b506040516200452d3803806200452d83398181016040528101906200003c919062000366565b848481600090816200004f91906200068c565b5080600190816200006191906200068c565b5050506000600a60006101000a81548160ff0219169083151502179055506200009f62000093620000ca60201b60201c565b620000d260201b60201c565b82600c8190555081600f9081620000b791906200068c565b5080600d81905550505050505062000773565b600033905090565b6000600a60019054906101000a900473ffffffffffffffffffffffffffffffffffffffff16905081600a60016101000a81548173ffffffffffffffffffffffffffffffffffffffff021916908373ffffffffffffffffffffffffffffffffffffffff1602179055508173ffffffffffffffffffffffffffffffffffffffff168173ffffffffffffffffffffffffffffffffffffffff167f8be0079c531659141344cd1fd0a4f28419497f9722a3daafe3b4186f6b6457e060405160405180910390a35050565b6000604051905090565b600080fd5b600080fd5b600080fd5b600080fd5b6000601f19601f8301169050919050565b7f4e487b7100000000000000000000000000000000000000000000000000000000600052604160045260246000fd5b6200020182620001b6565b810181811067ffffffffffffffff82111715620002235762000222620001c7565b5b80604052505050565b60006200023862000198565b9050620002468282620001f6565b919050565b600067ffffffffffffffff821115620002695762000268620001c7565b5b6200027482620001b6565b9050602081019050919050565b60005b83811015620002a157808201518184015260208101905062000284565b60008484015250505050565b6000620002c4620002be846200024b565b6200022c565b905082815260208101848484011115620002e357620002e2620001b1565b5b620002f084828562000281565b509392505050565b600082601f83011262000310576200030f620001ac565b5b815162000322848260208601620002ad565b91505092915050565b6000819050919050565b62000340816200032b565b81146200034c57600080fd5b50565b600081519050620003608162000335565b92915050565b600080600080600060a08688031215620003855762000384620001a2565b5b600086015167ffffffffffffffff811115620003a657620003a5620001a7565b5b620003b488828901620002f8565b955050602086015167ffffffffffffffff811115620003d857620003d7620001a7565b5b620003e688828901620002f8565b9450506040620003f9888289016200034f565b935050606086015167ffffffffffffffff8111156200041d576200041c620001a7565b5b6200042b88828901620002f8565b92505060806200043e888289016200034f565b9150509295509295909350565b600081519050919050565b7f4e487b7100000000000000000000000000000000000000000000000000000000600052602260045260246000fd5b600060028204905060018216806200049e57607f821691505b602082108103620004b457620004b362000456565b5b50919050565b60008190508160005260206000209050919050565b60006020601f8301049050919050565b600082821b905092915050565b6000600883026200051e7fffffffffffffffffffffffffffffffffffffffffffffffffffffffffffffffff82620004df565b6200052a8683620004df565b95508019841693508086168417925050509392505050565b6000819050919050565b60006200056d6200056762000561846200032b565b62000542565b6200032b565b9050919050565b6000819050919050565b62000589836200054c565b620005a1620005988262000574565b848454620004ec565b825550505050565b600090565b620005b8620005a9565b620005c58184846200057e565b505050565b5b81811015620005ed57620005e1600082620005ae565b600181019050620005cb565b5050565b601f8211156200063c576200060681620004ba565b6200061184620004cf565b8101602085101562000621578190505b620006396200063085620004cf565b830182620005ca565b50505b505050565b600082821c905092915050565b6000620006616000198460080262000641565b1980831691505092915050565b60006200067c83836200064e565b9150826002028217905092915050565b62000697826200044b565b67ffffffffffffffff811115620006b357620006b2620001c7565b5b620006bf825462000485565b620006cc828285620005f1565b600060209050601f831160018114620007045760008415620006ef578287015190505b620006fb85826200066e565b8655506200076b565b601f1984166200071486620004ba565b60005b828110156200073e5784890151825560018201915060208501945060208101905062000717565b868310156200075e57848901516200075a601f8916826200064e565b8355505b6001600288020188555050505b505050505050565b613daa80620007836000396000f3fe6080604052600436106101d85760003560e01c80635c975abb1161010257806395d89b4111610095578063c87b56dd11610064578063c87b56dd14610653578063d5abeb0114610690578063e985e9c5146106bb578063f2fde38b146106f8576101d8565b806395d89b41146105ab578063a22cb465146105d6578063affed0e0146105ff578063b88d4fde1461062a576101d8565b806370a08231116100d157806370a0823114610515578063715018a6146105525780638456cb59146105695780638da5cb5b14610580576101d8565b80635c975abb146104575780636352211e146104825780636817c76c146104bf5780636c0360eb146104ea576101d8565b80632f745c591161017a57806342842e0e1161014957806342842e0e1461039d57806342966c68146103c65780634f6ccce7146103ef57806359c87eb61461042c576101d8565b80632f745c59146103095780633ccfd60b146103465780633f4ba83a1461035d57806340d097c314610374576101d8565b8063095ea7b3116101b6578063095ea7b31461028257806318160ddd146102ab57806323b872dd146102d657806326092b83146102ff576101d8565b806301ffc9a7146101dd57806306fdde031461021a578063081812fc14610245575b600080fd5b3480156101e957600080fd5b5061020460048036038101906101ff9190612b05565b610721565b6040516102119190612b4d565b60405180910390f35b34801561022657600080fd5b5061022f610733565b60405161023c9190612bf8565b60405180910390f35b34801561025157600080fd5b5061026c60048036038101906102679190612c50565b6107c5565b6040516102799190612cbe565b60405180910390f35b34801561028e57600080fd5b506102a960048036038101906102a49190612d05565b61080b565b005b3480156102b757600080fd5b506102c0610922565b6040516102cd9190612d54565b60405180910390f35b3480156102e257600080fd5b506102fd60048036038101906102f89190612d6f565b61092f565b005b61030761098f565b005b34801561031557600080fd5b50610330600480360381019061032b9190612d05565b610a59565b60405161033d9190612d54565b60405180910390f35b34801561035257600080fd5b5061035b610afe565b005b34801561036957600080fd5b50610372610b5e565b005b34801561038057600080fd5b5061039b60048036038101906103969190612dc2565b610b70565b005b3480156103a957600080fd5b506103c460048036038101906103bf9190612d6f565b610b9f565b005b3480156103d257600080fd5b506103ed60048036038101906103e89190612c50565b610bbf565b005b3480156103fb57600080fd5b5061041660048036038101906104119190612c50565b610c1b565b6040516104239190612d54565b60405180910390f35b34801561043857600080fd5b50610441610c8c565b60405161044e9190612d54565b60405180910390f35b34801561046357600080fd5b5061046c610c9e565b6040516104799190612b4d565b60405180910390f35b34801561048e57600080fd5b506104a960048036038101906104a49190612c50565b610cb5565b6040516104b69190612cbe565b60405180910390f35b3480156104cb57600080fd5b506104d4610d3b565b6040516104e19190612d54565b60405180910390f35b3480156104f657600080fd5b506104ff610d41565b60405161050c9190612bf8565b60405180910390f35b34801561052157600080fd5b5061053c60048036038101906105379190612dc2565b610dcf565b6040516105499190612d54565b60405180910390f35b34801561055e57600080fd5b50610567610e86565b005b34801561057557600080fd5b5061057e610e9a565b005b34801561058c57600080fd5b50610595610eac565b6040516105a29190612cbe565b60405180910390f35b3480156105b757600080fd5b506105c0610ed6565b6040516105cd9190612bf8565b60405180910390f35b3480156105e257600080fd5b506105fd60048036038101906105f89190612e1b565b610f68565b005b34801561060b57600080fd5b50610614610f7e565b6040516106219190612d54565b60405180910390f35b34801561063657600080fd5b50610651600480360381019061064c9190612f90565b610f84565b005b34801561065f57600080fd5b5061067a60048036038101906106759190612c50565b610fe6565b6040516106879190612bf8565b60405180910390f35b34801561069c57600080fd5b506106a561104e565b6040516106b29190612d54565b60405180910390f35b3480156106c757600080fd5b506106e260048036038101906106dd9190613013565b611054565b6040516106ef9190612b4d565b60405180910390f35b34801561070457600080fd5b5061071f600480360381019061071a9190612dc2565b6110e8565b005b600061072c8261116b565b9050919050565b60606000805461074290613082565b80601f016020809104026020016040519081016040528092919081815260200182805461076e90613082565b80156107bb5780601f10610790576101008083540402835291602001916107bb565b820191906000526020600020905b81548152906001019060200180831161079e57829003601f168201915b5050505050905090565b60006107d0826111e5565b6004600083815260200190815260200160002060009054906101000a900473ffffffffffffffffffffffffffffffffffffffff169050919050565b600061081682610cb5565b90508073ffffffffffffffffffffffffffffffffffffffff168373ffffffffffffffffffffffffffffffffffffffff1603610886576040517f08c379a000000000000000000000000000000000000000000000000000000000815260040161087d90613125565b60405180910390fd5b8073ffffffffffffffffffffffffffffffffffffffff166108a5611230565b73ffffffffffffffffffffffffffffffffffffffff1614806108d457506108d3816108ce611230565b611054565b5b610913576040517f08c379a000000000000000000000000000000000000000000000000000000000815260040161090a906131b7565b60405180910390fd5b61091d8383611238565b505050565b6000600880549050905090565b61094061093a611230565b826112f1565b61097f576040517f08c379a000000000000000000000000000000000000000000000000000000000815260040161097690613249565b60405180910390fd5b61098a838383611386565b505050565b600c54600b54106109d5576040517f08c379a00000000000000000000000000000000000000000000000000000000081526004016109cc906132b5565b60405180910390fd5b600d54341015610a1a576040517f08c379a0000000000000000000000000000000000000000000000000000000008152600401610a1190613321565b60405180910390fd5b600b6000815480929190610a2d90613370565b9190505550610a3e33600b5461167f565b34600e6000828254610a5091906133b8565b92505081905550565b6000610a6483610dcf565b8210610aa5576040517f08c379a0000000000000000000000000000000000000000000000000000000008152600401610a9c9061345e565b60405180910390fd5b600660008473ffffffffffffffffffffffffffffffffffffffff1673ffffffffffffffffffffffffffffffffffffffff168152602001908152602001600020600083815260200190815260200160002054905092915050565b610b0661169d565b610b0e610eac565b73ffffffffffffffffffffffffffffffffffffffff166108fc479081150290604051600060405180830381858888f19350505050158015610b53573d6000803e3d6000fd5b506000600e81905550565b610b6661169d565b610b6e61171b565b565b610b7861169d565b600b6000815480929190610b8b90613370565b9190505550610b9c81600b5461167f565b50565b610bba83838360405180602001604052806000815250610f84565b505050565b610bd0610bca611230565b826112f1565b610c0f576040517f08c379a0000000000000000000000000000000000000000000000000000000008152600401610c0690613249565b60405180910390fd5b610c188161177e565b50565b6000610c25610922565b8210610c66576040517f08c379a0000000000000000000000000000000000000000000000000000000008152600401610c5d906134f0565b60405180910390fd5b60088281548110610c7a57610c79613510565b5b90600052602060002001549050919050565b6000610c9661169d565b600e54905090565b6000600a60009054906101000a900460ff16905090565b600080610cc1836118cc565b9050600073ffffffffffffffffffffffffffffffffffffffff168173ffffffffffffffffffffffffffffffffffffffff1603610d32576040517f08c379a0000000000000000000000000000000000000000000000000000000008152600401610d299061358b565b60405180910390fd5b80915050919050565b600d5481565b600f8054610d4e90613082565b80601f0160208091040260200160405190810160405280929190818152602001828054610d7a90613082565b8015610dc75780601f10610d9c57610100808354040283529160200191610dc7565b820191906000526020600020905b815481529060010190602001808311610daa57829003601f168201915b505050505081565b60008073ffffffffffffffffffffffffffffffffffffffff168273ffffffffffffffffffffffffffffffffffffffff1603610e3f576040517f08c379a0000000000000000000000000000000000000000000000000000000008152600401610e369061361d565b60405180910390fd5b600360008373ffffffffffffffffffffffffffffffffffffffff1673ffffffffffffffffffffffffffffffffffffffff168152602001908152602001600020549050919050565b610e8e61169d565b610e986000611909565b565b610ea261169d565b610eaa6119cf565b565b6000600a60019054906101000a900473ffffffffffffffffffffffffffffffffffffffff16905090565b606060018054610ee590613082565b80601f0160208091040260200160405190810160405280929190818152602001828054610f1190613082565b8015610f5e5780601f10610f3357610100808354040283529160200191610f5e565b820191906000526020600020905b815481529060010190602001808311610f4157829003601f168201915b5050505050905090565b610f7a610f73611230565b8383611a32565b5050565b600b5481565b610f95610f8f611230565b836112f1565b610fd4576040517f08c379a0000000000000000000000000000000000000000000000000000000008152600401610fcb90613249565b60405180910390fd5b610fe084848484611b9e565b50505050565b6060610ff1826111e5565b6000610ffb611bfa565b9050600081511161101b5760405180602001604052806000815250611046565b8061102584611c8c565b604051602001611036929190613679565b6040516020818303038152906040525b915050919050565b600c5481565b6000600560008473ffffffffffffffffffffffffffffffffffffffff1673ffffffffffffffffffffffffffffffffffffffff16815260200190815260200160002060008373ffffffffffffffffffffffffffffffffffffffff1673ffffffffffffffffffffffffffffffffffffffff16815260200190815260200160002060009054906101000a900460ff16905092915050565b6110f061169d565b600073ffffffffffffffffffffffffffffffffffffffff168173ffffffffffffffffffffffffffffffffffffffff160361115f576040517f08c379a00000000000000000000000000000000000000000000000000000000081526004016111569061370f565b60405180910390fd5b61116881611909565b50565b60007f780e9d63000000000000000000000000000000000000000000000000000000007bffffffffffffffffffffffffffffffffffffffffffffffffffffffff1916827bffffffffffffffffffffffffffffffffffffffffffffffffffffffff191614806111de57506111dd82611d5a565b5b9050919050565b6111ee81611e3c565b61122d576040517f08c379a00000000000000000000000000000000000000000000000000000000081526004016112249061358b565b60405180910390fd5b50565b600033905090565b816004600083815260200190815260200160002060006101000a81548173ffffffffffffffffffffffffffffffffffffffff021916908373ffffffffffffffffffffffffffffffffffffffff160217905550808273ffffffffffffffffffffffffffffffffffffffff166112ab83610cb5565b73ffffffffffffffffffffffffffffffffffffffff167f8c5be1e5ebec7d5bd14f71427d1e84f3dd0314c0f7b2291e5b200ac8c7c3b92560405160405180910390a45050565b6000806112fd83610cb5565b90508073ffffffffffffffffffffffffffffffffffffffff168473ffffffffffffffffffffffffffffffffffffffff16148061133f575061133e8185611054565b5b8061137d57508373ffffffffffffffffffffffffffffffffffffffff16611365846107c5565b73ffffffffffffffffffffffffffffffffffffffff16145b91505092915050565b8273ffffffffffffffffffffffffffffffffffffffff166113a682610cb5565b73ffffffffffffffffffffffffffffffffffffffff16146113fc576040517f08c379a00000000000000000000000000000000000000000000000000000000081526004016113f3906137a1565b60405180910390fd5b600073ffffffffffffffffffffffffffffffffffffffff168273ffffffffffffffffffffffffffffffffffffffff160361146b576040517f08c379a000000000000000000000000000000000000000000000000000000000815260040161146290613833565b60405180910390fd5b6114788383836001611e7d565b8273ffffffffffffffffffffffffffffffffffffffff1661149882610cb5565b73ffffffffffffffffffffffffffffffffffffffff16146114ee576040517f08c379a00000000000000000000000000000000000000000000000000000000081526004016114e5906137a1565b60405180910390fd5b6004600082815260200190815260200160002060006101000a81549073ffffffffffffffffffffffffffffffffffffffff02191690556001600360008573ffffffffffffffffffffffffffffffffffffffff1673ffffffffffffffffffffffffffffffffffffffff168152602001908152602001600020600082825403925050819055506001600360008473ffffffffffffffffffffffffffffffffffffffff1673ffffffffffffffffffffffffffffffffffffffff16815260200190815260200160002060008282540192505081905550816002600083815260200190815260200160002060006101000a81548173ffffffffffffffffffffffffffffffffffffffff021916908373ffffffffffffffffffffffffffffffffffffffff160217905550808273ffffffffffffffffffffffffffffffffffffffff168473ffffffffffffffffffffffffffffffffffffffff167fddf252ad1be2c89b69c2b068fc378daa952ba7f163c4a11628f55a4df523b3ef60405160405180910390a461167a8383836001611e97565b505050565b611699828260405180602001604052806000815250611e9d565b5050565b6116a5611230565b73ffffffffffffffffffffffffffffffffffffffff166116c3610eac565b73ffffffffffffffffffffffffffffffffffffffff1614611719576040517f08c379a00000000000000000000000000000000000000000000000000000000081526004016117109061389f565b60405180910390fd5b565b611723611ef8565b6000600a60006101000a81548160ff0219169083151502179055507f5db9ee0a495bf2e6ff9c91a7834c1ba4fdd244a5e8aa4e537bd38aeae4b073aa611767611230565b6040516117749190612cbe565b60405180910390a1565b600061178982610cb5565b9050611799816000846001611e7d565b6117a282610cb5565b90506004600083815260200190815260200160002060006101000a81549073ffffffffffffffffffffffffffffffffffffffff02191690556001600360008373ffffffffffffffffffffffffffffffffffffffff1673ffffffffffffffffffffffffffffffffffffffff168152602001908152602001600020600082825403925050819055506002600083815260200190815260200160002060006101000a81549073ffffffffffffffffffffffffffffffffffffffff021916905581600073ffffffffffffffffffffffffffffffffffffffff168273ffffffffffffffffffffffffffffffffffffffff167fddf252ad1be2c89b69c2b068fc378daa952ba7f163c4a11628f55a4df523b3ef60405160405180910390a46118c8816000846001611e97565b5050565b60006002600083815260200190815260200160002060009054906101000a900473ffffffffffffffffffffffffffffffffffffffff169050919050565b6000600a60019054906101000a900473ffffffffffffffffffffffffffffffffffffffff16905081600a60016101000a81548173ffffffffffffffffffffffffffffffffffffffff021916908373ffffffffffffffffffffffffffffffffffffffff1602179055508173ffffffffffffffffffffffffffffffffffffffff168173ffffffffffffffffffffffffffffffffffffffff167f8be0079c531659141344cd1fd0a4f28419497f9722a3daafe3b4186f6b6457e060405160405180910390a35050565b6119d7611f41565b6001600a60006101000a81548160ff0219169083151502179055507f62e78cea01bee320cd4e420270b5ea74000d11b0c9f74754ebdbfc544b05a258611a1b611230565b604051611a289190612cbe565b60405180910390a1565b8173ffffffffffffffffffffffffffffffffffffffff168373ffffffffffffffffffffffffffffffffffffffff1603611aa0576040517f08c379a0000000000000000000000000000000000000000000000000000000008152600401611a979061390b565b60405180910390fd5b80600560008573ffffffffffffffffffffffffffffffffffffffff1673ffffffffffffffffffffffffffffffffffffffff16815260200190815260200160002060008473ffffffffffffffffffffffffffffffffffffffff1673ffffffffffffffffffffffffffffffffffffffff16815260200190815260200160002060006101000a81548160ff0219169083151502179055508173ffffffffffffffffffffffffffffffffffffffff168373ffffffffffffffffffffffffffffffffffffffff167f17307eab39ab6107e8899845ad3d59bd9653f200f220920489ca2b5937696c3183604051611b919190612b4d565b60405180910390a3505050565b611ba9848484611386565b611bb584848484611f8b565b611bf4576040517f08c379a0000000000000000000000000000000000000000000000000000000008152600401611beb9061399d565b60405180910390fd5b50505050565b6060600f8054611c0990613082565b80601f0160208091040260200160405190810160405280929190818152602001828054611c3590613082565b8015611c825780601f10611c5757610100808354040283529160200191611c82565b820191906000526020600020905b815481529060010190602001808311611c6557829003601f168201915b5050505050905090565b606060006001611c9b84612112565b01905060008167ffffffffffffffff811115611cba57611cb9612e65565b5b6040519080825280601f01601f191660200182016040528015611cec5781602001600182028036833780820191505090505b509050600082602001820190505b600115611d4f578080600190039150507f3031323334353637383961626364656600000000000000000000000000000000600a86061a8153600a8581611d4357611d426139bd565b5b04945060008503611cfa575b819350505050919050565b60007f80ac58cd000000000000000000000000000000000000000000000000000000007bffffffffffffffffffffffffffffffffffffffffffffffffffffffff1916827bffffffffffffffffffffffffffffffffffffffffffffffffffffffff19161480611e2557507f5b5e139f000000000000000000000000000000000000000000000000000000007bffffffffffffffffffffffffffffffffffffffffffffffffffffffff1916827bffffffffffffffffffffffffffffffffffffffffffffffffffffffff1916145b80611e355750611e3482612265565b5b9050919050565b60008073ffffffffffffffffffffffffffffffffffffffff16611e5e836118cc565b73ffffffffffffffffffffffffffffffffffffffff1614159050919050565b611e85611f41565b611e91848484846122cf565b50505050565b50505050565b611ea7838361242d565b611eb46000848484611f8b565b611ef3576040517f08c379a0000000000000000000000000000000000000000000000000000000008152600401611eea9061399d565b60405180910390fd5b505050565b611f00610c9e565b611f3f576040517f08c379a0000000000000000000000000000000000000000000000000000000008152600401611f3690613a38565b60405180910390fd5b565b611f49610c9e565b15611f89576040517f08c379a0000000000000000000000000000000000000000000000000000000008152600401611f8090613aa4565b60405180910390fd5b565b6000611fac8473ffffffffffffffffffffffffffffffffffffffff1661264a565b15612105578373ffffffffffffffffffffffffffffffffffffffff1663150b7a02611fd5611230565b8786866040518563ffffffff1660e01b8152600401611ff79493929190613b19565b6020604051808303816000875af192505050801561203357506040513d601f19601f820116820180604052508101906120309190613b7a565b60015b6120b5573d8060008114612063576040519150601f19603f3d011682016040523d82523d6000602084013e612068565b606091505b5060008151036120ad576040517f08c379a00000000000000000000000000000000000000000000000000000000081526004016120a49061399d565b60405180910390fd5b805181602001fd5b63150b7a0260e01b7bffffffffffffffffffffffffffffffffffffffffffffffffffffffff1916817bffffffffffffffffffffffffffffffffffffffffffffffffffffffff19161491505061210a565b600190505b949350505050565b600080600090507a184f03e93ff9f4daa797ed6e38ed64bf6a1f0100000000000000008310612170577a184f03e93ff9f4daa797ed6e38ed64bf6a1f0100000000000000008381612166576121656139bd565b5b0492506040810190505b6d04ee2d6d415b85acef810000000083106121ad576d04ee2d6d415b85acef810000000083816121a3576121a26139bd565b5b0492506020810190505b662386f26fc1000083106121dc57662386f26fc1000083816121d2576121d16139bd565b5b0492506010810190505b6305f5e1008310612205576305f5e10083816121fb576121fa6139bd565b5b0492506008810190505b612710831061222a5761271083816122205761221f6139bd565b5b0492506004810190505b6064831061224d5760648381612243576122426139bd565b5b0492506002810190505b600a831061225c576001810190505b80915050919050565b60007f01ffc9a7000000000000000000000000000000000000000000000000000000007bffffffffffffffffffffffffffffffffffffffffffffffffffffffff1916827bffffffffffffffffffffffffffffffffffffffffffffffffffffffff1916149050919050565b6122db8484848461266d565b600181111561231f576040517f08c379a000000000000000000000000000000000000000000000000000000000815260040161231690613c19565b60405180910390fd5b6000829050600073ffffffffffffffffffffffffffffffffffffffff168573ffffffffffffffffffffffffffffffffffffffff16036123665761236181612793565b6123a5565b8373ffffffffffffffffffffffffffffffffffffffff168573ffffffffffffffffffffffffffffffffffffffff16146123a4576123a385826127dc565b5b5b600073ffffffffffffffffffffffffffffffffffffffff168473ffffffffffffffffffffffffffffffffffffffff16036123e7576123e281612949565b612426565b8473ffffffffffffffffffffffffffffffffffffffff168473ffffffffffffffffffffffffffffffffffffffff1614612425576124248482612a1a565b5b5b5050505050565b600073ffffffffffffffffffffffffffffffffffffffff168273ffffffffffffffffffffffffffffffffffffffff160361249c576040517f08c379a000000000000000000000000000000000000000000000000000000000815260040161249390613c85565b60405180910390fd5b6124a581611e3c565b156124e5576040517f08c379a00000000000000000000000000000000000000000000000000000000081526004016124dc90613cf1565b60405180910390fd5b6124f3600083836001611e7d565b6124fc81611e3c565b1561253c576040517f08c379a000000000000000000000000000000000000000000000000000000000815260040161253390613cf1565b60405180910390fd5b6001600360008473ffffffffffffffffffffffffffffffffffffffff1673ffffffffffffffffffffffffffffffffffffffff16815260200190815260200160002060008282540192505081905550816002600083815260200190815260200160002060006101000a81548173ffffffffffffffffffffffffffffffffffffffff021916908373ffffffffffffffffffffffffffffffffffffffff160217905550808273ffffffffffffffffffffffffffffffffffffffff16600073ffffffffffffffffffffffffffffffffffffffff167fddf252ad1be2c89b69c2b068fc378daa952ba7f163c4a11628f55a4df523b3ef60405160405180910390a4612646600083836001611e97565b5050565b6000808273ffffffffffffffffffffffffffffffffffffffff163b119050919050565b600181111561278d57600073ffffffffffffffffffffffffffffffffffffffff168473ffffffffffffffffffffffffffffffffffffffff16146127015780600360008673ffffffffffffffffffffffffffffffffffffffff1673ffffffffffffffffffffffffffffffffffffffff16815260200190815260200160002060008282546126f99190613d11565b925050819055505b600073ffffffffffffffffffffffffffffffffffffffff168373ffffffffffffffffffffffffffffffffffffffff161461278c5780600360008573ffffffffffffffffffffffffffffffffffffffff1673ffffffffffffffffffffffffffffffffffffffff168152602001908152602001600020600082825461278491906133b8565b925050819055505b5b50505050565b6008805490506009600083815260200190815260200160002081905550600881908060018154018082558091505060019003906000526020600020016000909190919091505550565b600060016127e984610dcf565b6127f39190613d11565b90506000600760008481526020019081526020016000205490508181146128d8576000600660008673ffffffffffffffffffffffffffffffffffffffff1673ffffffffffffffffffffffffffffffffffffffff168152602001908152602001600020600084815260200190815260200160002054905080600660008773ffffffffffffffffffffffffffffffffffffffff1673ffffffffffffffffffffffffffffffffffffffff168152602001908152602001600020600084815260200190815260200160002081905550816007600083815260200190815260200160002081905550505b6007600084815260200190815260200160002060009055600660008573ffffffffffffffffffffffffffffffffffffffff1673ffffffffffffffffffffffffffffffffffffffff16815260200190815260200160002060008381526020019081526020016000206000905550505050565b6000600160088054905061295d9190613d11565b905060006009600084815260200190815260200160002054905060006008838154811061298d5761298c613510565b5b9060005260206000200154905080600883815481106129af576129ae613510565b5b9060005260206000200181905550816009600083815260200190815260200160002081905550600960008581526020019081526020016000206000905560088054806129fe576129fd613d45565b5b6001900381819060005260206000200160009055905550505050565b6000612a2583610dcf565b905081600660008573ffffffffffffffffffffffffffffffffffffffff1673ffffffffffffffffffffffffffffffffffffffff168152602001908152602001600020600083815260200190815260200160002081905550806007600084815260200190815260200160002081905550505050565b6000604051905090565b600080fd5b600080fd5b60007fffffffff0000000000000000000000000000000000000000000000000000000082169050919050565b612ae281612aad565b8114612aed57600080fd5b50565b600081359050612aff81612ad9565b92915050565b600060208284031215612b1b57612b1a612aa3565b5b6000612b2984828501612af0565b91505092915050565b60008115159050919050565b612b4781612b32565b82525050565b6000602082019050612b626000830184612b3e565b92915050565b600081519050919050565b600082825260208201905092915050565b60005b83811015612ba2578082015181840152602081019050612b87565b60008484015250505050565b6000601f19601f8301169050919050565b6000612bca82612b68565b612bd48185612b73565b9350612be4818560208601612b84565b612bed81612bae565b840191505092915050565b60006020820190508181036000830152612c128184612bbf565b905092915050565b6000819050919050565b612c2d81612c1a565b8114612c3857600080fd5b50565b600081359050612c4a81612c24565b92915050565b600060208284031215612c6657612c65612aa3565b5b6000612c7484828501612c3b565b91505092915050565b600073ffffffffffffffffffffffffffffffffffffffff82169050919050565b6000612ca882612c7d565b9050919050565b612cb881612c9d565b82525050565b6000602082019050612cd36000830184612caf565b92915050565b612ce281612c9d565b8114612ced57600080fd5b50565b600081359050612cff81612cd9565b92915050565b60008060408385031215612d1c57612d1b612aa3565b5b6000612d2a85828601612cf0565b9250506020612d3b85828601612c3b565b9150509250929050565b612d4e81612c1a565b82525050565b6000602082019050612d696000830184612d45565b92915050565b600080600060608486031215612d8857612d87612aa3565b5b6000612d9686828701612cf0565b9350506020612da786828701612cf0565b9250506040612db886828701612c3b565b9150509250925092565b600060208284031215612dd857612dd7612aa3565b5b6000612de684828501612cf0565b91505092915050565b612df881612b32565b8114612e0357600080fd5b50565b600081359050612e1581612def565b92915050565b60008060408385031215612e3257612e31612aa3565b5b6000612e4085828601612cf0565b9250506020612e5185828601612e06565b9150509250929050565b600080fd5b600080fd5b7f4e487b7100000000000000000000000000000000000000000000000000000000600052604160045260246000fd5b612e9d82612bae565b810181811067ffffffffffffffff82111715612ebc57612ebb612e65565b5b80604052505050565b6000612ecf612a99565b9050612edb8282612e94565b919050565b600067ffffffffffffffff821115612efb57612efa612e65565b5b612f0482612bae565b9050602081019050919050565b82818337600083830152505050565b6000612f33612f2e84612ee0565b612ec5565b905082815260208101848484011115612f4f57612f4e612e60565b5b612f5a848285612f11565b509392505050565b600082601f830112612f7757612f76612e5b565b5b8135612f87848260208601612f20565b91505092915050565b60008060008060808587031215612faa57612fa9612aa3565b5b6000612fb887828801612cf0565b9450506020612fc987828801612cf0565b9350506040612fda87828801612c3b565b925050606085013567ffffffffffffffff811115612ffb57612ffa612aa8565b5b61300787828801612f62565b91505092959194509250565b6000806040838503121561302a57613029612aa3565b5b600061303885828601612cf0565b925050602061304985828601612cf0565b9150509250929050565b7f4e487b7100000000000000000000000000000000000000000000000000000000600052602260045260246000fd5b6000600282049050600182168061309a57607f821691505b6020821081036130ad576130ac613053565b5b50919050565b7f4552433732313a20617070726f76616c20746f2063757272656e74206f776e6560008201527f7200000000000000000000000000000000000000000000000000000000000000602082015250565b600061310f602183612b73565b915061311a826130b3565b604082019050919050565b6000602082019050818103600083015261313e81613102565b9050919050565b7f4552433732313a20617070726f76652063616c6c6572206973206e6f7420746f60008201527f6b656e206f776e6572206f7220617070726f76656420666f7220616c6c000000602082015250565b60006131a1603d83612b73565b91506131ac82613145565b604082019050919050565b600060208201905081810360008301526131d081613194565b9050919050565b7f4552433732313a2063616c6c6572206973206e6f7420746f6b656e206f776e6560008201527f72206f7220617070726f76656400000000000000000000000000000000000000602082015250565b6000613233602d83612b73565b915061323e826131d7565b604082019050919050565b6000602082019050818103600083015261326281613226565b9050919050565b7f6d617820737570706c7920657863656564656400000000000000000000000000600082015250565b600061329f601383612b73565b91506132aa82613269565b602082019050919050565b600060208201905081810360008301526132ce81613292565b9050919050565b7f4e6f7420656e6f75676820666565000000000000000000000000000000000000600082015250565b600061330b600e83612b73565b9150613316826132d5565b602082019050919050565b6000602082019050818103600083015261333a816132fe565b9050919050565b7f4e487b7100000000000000000000000000000000000000000000000000000000600052601160045260246000fd5b600061337b82612c1a565b91507fffffffffffffffffffffffffffffffffffffffffffffffffffffffffffffffff82036133ad576133ac613341565b5b600182019050919050565b60006133c382612c1a565b91506133ce83612c1a565b92508282019050808211156133e6576133e5613341565b5b92915050565b7f455243373231456e756d657261626c653a206f776e657220696e646578206f7560008201527f74206f6620626f756e6473000000000000000000000000000000000000000000602082015250565b6000613448602b83612b73565b9150613453826133ec565b604082019050919050565b600060208201905081810360008301526134778161343b565b9050919050565b7f455243373231456e756d657261626c653a20676c6f62616c20696e646578206f60008201527f7574206f6620626f756e64730000000000000000000000000000000000000000602082015250565b60006134da602c83612b73565b91506134e58261347e565b604082019050919050565b60006020820190508181036000830152613509816134cd565b9050919050565b7f4e487b7100000000000000000000000000000000000000000000000000000000600052603260045260246000fd5b7f4552433732313a20696e76616c696420746f6b656e2049440000000000000000600082015250565b6000613575601883612b73565b91506135808261353f565b602082019050919050565b600060208201905081810360008301526135a481613568565b9050919050565b7f4552433732313a2061646472657373207a65726f206973206e6f74206120766160008201527f6c6964206f776e65720000000000000000000000000000000000000000000000602082015250565b6000613607602983612b73565b9150613612826135ab565b604082019050919050565b60006020820190508181036000830152613636816135fa565b9050919050565b600081905092915050565b600061365382612b68565b61365d818561363d565b935061366d818560208601612b84565b80840191505092915050565b60006136858285613648565b91506136918284613648565b91508190509392505050565b7f4f776e61626c653a206e6577206f776e657220697320746865207a65726f206160008201527f6464726573730000000000000000000000000000000000000000000000000000602082015250565b60006136f9602683612b73565b91506137048261369d565b604082019050919050565b60006020820190508181036000830152613728816136ec565b9050919050565b7f4552433732313a207472616e736665722066726f6d20696e636f72726563742060008201527f6f776e6572000000000000000000000000000000000000000000000000000000602082015250565b600061378b602583612b73565b91506137968261372f565b604082019050919050565b600060208201905081810360008301526137ba8161377e565b9050919050565b7f4552433732313a207472616e7366657220746f20746865207a65726f2061646460008201527f7265737300000000000000000000000000000000000000000000000000000000602082015250565b600061381d602483612b73565b9150613828826137c1565b604082019050919050565b6000602082019050818103600083015261384c81613810565b9050919050565b7f4f776e61626c653a2063616c6c6572206973206e6f7420746865206f776e6572600082015250565b6000613889602083612b73565b915061389482613853565b602082019050919050565b600060208201905081810360008301526138b88161387c565b9050919050565b7f4552433732313a20617070726f766520746f2063616c6c657200000000000000600082015250565b60006138f5601983612b73565b9150613900826138bf565b602082019050919050565b60006020820190508181036000830152613924816138e8565b9050919050565b7f4552433732313a207472616e7366657220746f206e6f6e20455243373231526560008201527f63656976657220696d706c656d656e7465720000000000000000000000000000602082015250565b6000613987603283612b73565b91506139928261392b565b604082019050919050565b600060208201905081810360008301526139b68161397a565b9050919050565b7f4e487b7100000000000000000000000000000000000000000000000000000000600052601260045260246000fd5b7f5061757361626c653a206e6f7420706175736564000000000000000000000000600082015250565b6000613a22601483612b73565b9150613a2d826139ec565b602082019050919050565b60006020820190508181036000830152613a5181613a15565b9050919050565b7f5061757361626c653a2070617573656400000000000000000000000000000000600082015250565b6000613a8e601083612b73565b9150613a9982613a58565b602082019050919050565b60006020820190508181036000830152613abd81613a81565b9050919050565b600081519050919050565b600082825260208201905092915050565b6000613aeb82613ac4565b613af58185613acf565b9350613b05818560208601612b84565b613b0e81612bae565b840191505092915050565b6000608082019050613b2e6000830187612caf565b613b3b6020830186612caf565b613b486040830185612d45565b8181036060830152613b5a8184613ae0565b905095945050505050565b600081519050613b7481612ad9565b92915050565b600060208284031215613b9057613b8f612aa3565b5b6000613b9e84828501613b65565b91505092915050565b7f455243373231456e756d657261626c653a20636f6e736563757469766520747260008201527f616e7366657273206e6f7420737570706f727465640000000000000000000000602082015250565b6000613c03603583612b73565b9150613c0e82613ba7565b604082019050919050565b60006020820190508181036000830152613c3281613bf6565b9050919050565b7f4552433732313a206d696e7420746f20746865207a65726f2061646472657373600082015250565b6000613c6f602083612b73565b9150613c7a82613c39565b602082019050919050565b60006020820190508181036000830152613c9e81613c62565b9050919050565b7f4552433732313a20746f6b656e20616c7265616479206d696e74656400000000600082015250565b6000613cdb601c83612b73565b9150613ce682613ca5565b602082019050919050565b60006020820190508181036000830152613d0a81613cce565b9050919050565b6000613d1c82612c1a565b9150613d2783612c1a565b9250828203905081811115613d3f57613d3e613341565b5b92915050565b7f4e487b7100000000000000000000000000000000000000000000000000000000600052603160045260246000fdfea26469706673582212207b38c47e2f920b027fefb7083227911c2db35874593bcca1a874c58435adaeb364736f6c63430008110033",
  "linkReferences": {},
  "deployedLinkReferences": {}
}